:1000000080314728053008007E1480310B1F0928F5
:100010000A2845282100111E0E280F281A28200022
:10002000111E132814281A285B088A005A080A008F
:10003000803145282100911E1E281F282A282000D3
:10004000911E232824282A2859088A0058080A00C3
:10005000803145282100921D2E282F283A28200083
:10006000921D332834283A285F088A005E080A0067
:10007000803145282100911D3E283F284528200039
:10008000911D43284428452834287E1009008031DA
:1000900049288F314D278031E800FD014A30840026
:1000A000003085001E308F31DC278031A030840085
:1000B0000030850035308F31DC27803120308400DE
:1000C0000130850020308F31DC2780317E10200008
:1000D00080316A288631D52680318B170B17303056
:1000E0002000C2004208C9000F1C77287828862803
:1000F0004130C2004208A30000308531A425803180
:1001000021302000C6000030C70091280030873120
:100110008A2780312000C200C3014208C60043087C
:10012000C7008731C82780314E308131B6218031F8
:100130002000A901A90A01308431482480317C3093
:100140002000A9008730AA0086312D2680312000AA
:10015000A901A90A0230843148248031F8302000F6
:10016000A9008730AA0086312D2680312000A90100
:10017000A90A0430843148248031200046088631A1
:100180007E26803166302000C3007630C200C13048
:10019000890BC828C20BC828C30BC8288731C827B9
:1001A00080318731E62780310630863195268031CF
:1001B00002302000C3000430C200BA30890BDE28B0
:1001C000C20BDE28C30BDE2800002000A901A90A0B
:1001D0000130843148248031A4302000A9008730C8
:1001E000AA0086312D2680312000A901A90A0230FB
:1001F0008431482480316D302000A9008730AA0066
:1002000086312D2680312000A901A90A03308431CE
:10021000482480312000490886317E2680311530FF
:100220002000C3004B30C200BE30890B1529C20B21
:100230001529C30B1529000020000F18202921299A
:10024000322922000C1415302000C3004B30C200AC
:10025000BE30890B2929C20B2929C30B292900008B
:1002600022000C100C3086310C268031200024082E
:10027000C5002308C4004508803AC200813042020C
:10028000031D4429F43044020318472948294B2907
:1002900022000C144D2922000C1020000F195129A6
:1002A0005229702922008C14DD302000BE008730D6
:1002B000BF008631E826803115302000C3004B3066
:1002C000C200BE30890B6229C20B6229C30B6229AE
:1002D000000022008C1020000F1D6F2970296B294F
:1002E0006208031974297529A32985312B258031CA
:1002F0002000C2004208C800932922008C145E30FE
:100300002000BE008730BF008631E8268031A32957
:1003100022008C1038302000BE008430BF008631AF
:10032000E8268031A3294808C200C3014308003AE7
:1003300003199B29A3294208303A03198829013A55
:1003400003197D29A32920004908013EC200420863
:10035000C9003A304906031DAE29AF29CE283030F6
:10036000C2004208C900CE28803147282000AB00D7
:100370002B08A9002908E00000308631C126813110
:100380009C302000A900D730890BC429A90BC429AF
:1003900003308631952681311A302000A900F830CB
:1003A000890BD029A90BD02900000330863195266E
:1003B00081311A302000A900F830890BDD29A90B02
:1003C000DD29000003308631952681311A30200066
:1003D000A900F830890BEA29A90BEA2900000230AC
:1003E0008631952681311A302000A900F830890B1A
:1003F000F729A90BF729000028308631952681318D
:1004000002302000AA000430A900BA30890B062A65
:10041000A90B062AAA0B062A00000C308631952665
:10042000813102302000AA000430A900BA30890BC3
:10043000172AA90B172AAA0B172A000001308631A8
:100440009526813102302000AA000430A900BA307C
:10045000890B282AA90B282AAA0B282A0000063073
:1004600086319526813102302000AA000430A9008F
:10047000BA30890B392AA90B392AAA0B392A00006C
:1004800008002000B5002E0886008701403FB0001C
:10049000413FB10030088400310885001200253A40
:1004A000031D532A542A992A2E08860087010130F9
:1004B000810741310318810ACC01CD01D001D1015E
:1004C000FF30CE00FF30CF002E0886008701403F6E
:1004D000B000413FB10030088400310885001200AF
:1004E000253A031D742A752A8E2A2E088600870154
:1004F0000130810741310318810A2530A600003000
:10050000A7003508B0003008A80083319D23823150
:1005100001302000AE000030AF00BC2A2E0886005B
:1005200087010130810741310318810AAE01AF0113
:10053000BC2A2E0886008701403FB000413FB10031
:1005400030088400310885000008B200B301320889
:10055000A6003308A7003508B4003408A80083318A
:100560009D23823120002E088600870101308107FB
:1005700041310318810A882A08008F31AC27823163
:10058000003A0319C42AC52AF52AD22A8F318427B2
:100590008231112B8F3189278231112B8F31932793
:1005A0008231112B21002F08FA007A08F900063059
:1005B000A03E86008701413F8A00403F0A00823109
:1005C000FB00FC017C08003A0319E72ACE2A7B08CD
:1005D000013A0319CE2A033A0319C62A013A03192C
:1005E000CA2A073A0319CE2ACE2A21003C10173016
:1005F000A03E86008701403F84008501810A0008F3
:100600008F317A27823101302100B8020030B93BA6
:1006100038083904031D0D2B0E2B102B0630112B1F
:10062000033008008F3159278331FA002100370841
:10063000860087017A0881000130FA007A08B7073E
:100640000130B8020030B93B380839040319292BAE
:100650002A2B2F2B8F316E2783310530572BBC155A
:10066000392B8F31A2278331572B8F319D2783312F
:10067000572B2C08FA007A08F90021088A00200874
:100680000A008331FB00FC017C08003A0319492B66
:10069000352B7B08013A0319352B033A0319312B0B
:1006A000013A0319312B073A0319352B352B080072
:1006B00021009112DE302000A3000330A4008F310E
:1006C000D027833121001112EA302000A300053029
:1006D000A4008F31D6278331083023009F0090304B
:1006E0009D0024309E0040309B0003309C004C3025
:1006F0002000A3000F30A4008F31C427833166305F
:100700002000A3000F30A4008F31CA27833162304C
:100710002000A3000F30A4008F31BE2783312000BA
:10072000E101E701E6010830A5002508E500E40144
:10073000E301E201210091160800200028080319B6
:10074000A22BA32BA82B2808031DA72BA82BAD2B6E
:1007500026088F31E9278331DD2B2808033E8600E8
:100760008701160001040319B62BB72BD42B2808D8
:10077000033E86008701403FA900413FAA00280AA6
:1007800086008701403FAB00413FAC002C08803A17
:10079000AD002A08803A2D02031DD02B29082B0218
:1007A0000318D32BD42BDD2B2000280A86008701C9
:1007B0000130810741310318810A080020006408D4
:1007C000BD3E86008701810123001D1DE82BE92B1A
:1007D000F42B20006408BD3E860087018114570871
:1007E0008A0056080A00833123009D1CF82BF92B40
:1007F000042C20006408BD3E8600870101155508C1
:100800008A0054080A00843120006408BD3E860036
:100810008701010803190D2C0E2C142C53088A0093
:1008200052080A008431172C86314C268331080087
:100830007F340F34EF340734F0340F34BD340234D6
:1008400012340334E2340F347734043484340F34F4
:1008500089340F348E340F3493340F3498340F347A
:100860009D340F34A2340F34A7340F34D4340434FD
:1008700020342D343E3420344C3445344434203438
:100880004F3446344634213421340D340A34003494
:100890002000AC00632C2908BF3E863195268431A8
:1008A000762C2908933E863195268431762C2908AA
:1008B000D33E863195268431762C29087F3E8631B9
:1008C00095268431762C2C08AA00AB012B08003A1F
:1008D00003196B2C5D2C2A08023A03194B2C013AA0
:1008E0000319512C073A0319572C5D2C08002100DD
:1008F000BC15872C8F318E278431A52C8F315C2736
:1009000084310330A52C8F3193278431A52C2C08FA
:10091000FA007A08F90021088A0020080A008431C8
:10092000FB00FC017C08003A0319972C832C7B0800
:10093000013A0319832C033A03197A2C013A03195B
:100940007A2C073A03197E2C832C08008F315F27FD
:10095000843121003C1CAD2CAE2CBC2C8F31AC273B
:100960008431003A0319B52CB62CBC2C0F30200072
:10097000A00020082100BA0021003A082000A000B1
:10098000A101A035A10D1830200784008430213D3D
:100990008500013F8A00003F0A0084312000A20048
:1009A00022082100BA00080021003C100230FA00A1
:1009B0007A08BB00E32C8F318E278431FF2C8F31D6
:1009C00093278431FF2C2E08FA007A08F9000430AE
:1009D000A03E86008701413F8A00403F0A008431E3
:1009E000FB00FC017C08003A0319F72CDF2C7B0884
:1009F000023A0319DB2C013A0319DB2CDF2C080027
:100A00002000A40065080319062D072D022D2100E2
:100A1000111A0B2D0C2D112D2000240823009A00F3
:100A2000282D111220002408A3006708CD3E86005F
:100A30008701230881000130A3002308E70708305D
:100A40006702031C242D252D262DE7010130E50228
:100A5000210011160800200062080319302D312DE5
:100A60002B2D6308BD3E860087010108A3002308E3
:100A7000E1006308C53E860087010108A300230842
:100A8000A4000130A3002308E30708306302031C1D
:100A90004A2D4B2D4C2DE3012100911201302000F5
:100AA000E202210091162000240808002000BB006B
:100AB0003708BD003608BC00CA01CB01702D3C30A0
:100AC000B9003908AE003808BA003A08AF003B0850
:100AD00082314122853120002E08CA072F08CB3DE4
:100AE0003C0884003D0885001200031D782D792DF7
:100AF0005F2D4B08B7004A08B6000800F4007008E4
:100B000071040319842D852D962D7435A03E860021
:100B100087017008C03F7108C13F7208F300740874
:100B2000AC3E8600870173088100A32D7435A03E7A
:100B3000860087014E30C03F0F30C13F7408AC3E85
:100B400086008701810108002000A40024082300FA
:100B50009100200023082300930095131513151509
:100B600000308B1B01302000A5008B135530230073
:100B70009600AA30960095149518BF2DC02DBC2D57
:100B800015112000250C031C8B1303188B1708006C
:100B9000220090018F018C018D018E010F30210008
:100BA0009000FC308C00FF308D00BF308E00FF3095
:100BB0008F00FA3023008F003F308D000730900007
:100BC0003C308C00240090018D01210095172200FB
:100BD0009D0108000830200065020318F02DF12D5A
:100BE000092E6608CD3E86008701010823009A0081
:100BF0000130F00070082000E60708306602031C90
:100C0000022E032E042EE6010130F0007008E507E5
:100C10000B2E2100111208002000A6002608A500B6
:100C2000A50DA50D21001D082000250683392506E8
:100C300021009D001D140D30890B1C2E0000210089
:100C40009D149D18242E252E212E1C082000A40062
:100C500021001B082000A30008002000AC01AD010A
:100C6000402E29082C0784002A082D3D8500000805
:100C700086317E26863101302000AC070030AD3D44
:100C800029082C0784002A082D3D85001200031D29
:100C90004A2E4B2E312E080023001908F0002000A8
:100CA0006408C53E86008701700881000130F000AD
:100CB0007008E40708306402031C5F2E602E612E6A
:100CC000E4010130F0007008E207080079088600AE
:100CD0008701403FF000413FF1007908023E860065
:100CE0008701010887314E2786310030F500F60074
:100CF000F701873197278631023008002000A800CD
:100D0000FD01FD0A2808F0398631AB268631200026
:100D10002808A7000330A735FF3E031D8B2E27357B
:100D2000F0398631AB26863108002000A800FD018D
:100D30002808F0398631AB26863120002808A70024
:100D40000330A735FF3E031DA12E2735F03986312C
:100D5000AB26863108002000A6007D08A5002508E6
:100D6000A604260804388631C126863120002608CC
:100D7000FB398631C12686314230890BBD2E0032C7
:100D800008002000A4008F31B227863120006008BF
:100D900087313E27863120002408680487313E27AA
:100DA00086318F31B827863108008731D3278631C5
:100DB0008531C82586318731B02786318F31762736
:100DC00086318F31F82786318331582386310800E8
:100DD00040302000C0004008C1003F08B7003E0876
:100DE000B6004130C0004008B800003085315625BB
:100DF000863108000130F0000030F10079088731B9
:100E00004E2786310030F500F600F701873197272D
:100E10008631043008000230F0000030F10079081B
:100E200087314E2787310030F500F600F701873112
:100E300097278731023008000130F0000030F100C0
:100E4000790887314E2787310030F500F600F70129
:100E5000873197278731023008000230F0000030D8
:100E6000F100790887314E2787310030F500F60010
:100E7000F701873197278731043008002000A3004D
:100E80008731BC27873120002308240091002000EF
:100E9000911D4B2F4C2F472F91110800F30021007B
:100EA000BC1D532F542F5D2F7308F2007208B7003A
:100EB0007108B9007008B800BC11080020342D3446
:100EC0003E3420344C344534443420344F344E3492
:100ED000213421340D340A340034453474346134FF
:100EE00070346534203463346F346E3466346F3458
:100EF00072346D346534003454346534733474346E
:100F0000203465346E34203463346F347534723475
:100F1000733400342000A30023082300910015132C
:100F2000951315140000000023001308080076082C
:100F3000F1007508F0007708F8007808F20000303A
:100F400085317E2587310800463469346E3420347B
:100F50006534743461347034653420343134003491
:100F600070302100990098012200960121001A1F7B
:100F7000BA2FBB2FB62F080024001419C02FC12F81
:100F8000BC2F16081F39031DC62FC72FBC2F080002
:100F9000283024009500960194012730920021000A
:100FA0008E150E160800C0302400940008309500FD
:100FB00096014F30920095120800483465346C3425
:100FC0006C346F3421340D340A34003401308631EE
:100FD000952687313530890BEB2F00000800210062
:100FE0003C140314360D8F317A2787310530080001
:100FF0004534743461347034653420343134003411
:101E980008000834013008002400961408002400C3
:101EA80016150800240096150800240011080800DB
:101EB80020009115080020009111080086314C2659
:101EC8008F31080023001D121D16080024009616E5
:101ED8001616080024009612161608008431A62447
:101EE8008F3108001630210097000800F0007008B4
:101EF8002400910008002100BC10BB010E3008002E
:101F08008F3150278F31013008008F3150278F31A2
:101F1800023008008F3150278F31013008008F318F
:101F280053278F31003008008F316E278F310530ED
:101F380008008F316A278F310A3008008F316A27ED
:101F48008F31093008002100BC10BB010E30080099
:101F58002400160E890C890C013908008731BC272A
:101F68008F312400161408008731BC278F312400D4
:101F78001615080020002408D3002308D200080002
:101F880020002408D7002308D600080020002408D1
:101F9800D5002308D400080020002408D90023080D
:101FA800D800080020002408DB002308DA00080015
:101FB800640080010131890BDD2F003421003C10C1
:101FC8008F3156278F31043008002000A5002508DE
:101FD800853100258F31080021003C1436358F31BA
:101FE8007A278F3103300800F03021009E009B01D2
:081FF8009C0101309D0008006E
:020000040001F9
:08000000FF3FFF3FFF3FFF3F00
:04000E00E43FFF3F8D
:00000001FF
