:0400000080314728DC
:100008007E1480310B1F09280A2845282100111E5B
:100018000E280F281A282000111E132814281A2821
:100028005E088A005D080A00803145282100911E7B
:100038001E281F282A282000911E232824282A2821
:100048005C088A005B080A00803145282100921D5F
:100058002E282F283A282000921D332834283A28A1
:1000680062088A0061080A00803145282100911D34
:100078003E283F2845282000911D4328442845282C
:1000880034287E10090080314928FD012030840081
:1000980000308500493083318D2380317E10200067
:1000A80083316E2B833193238031003A03195D2805
:1000B8005E288E286B288331BC238031AA2883319F
:1000C800B7238031AA288331AD238031AA282000A4
:1000D8002F08FA007A08F9000630203E86008701CA
:1000E800413F8A00403F0A008031FB00FC017C0848
:1000F800003A0319802867287B08013A0319672802
:10010800033A03195F28013A03196328073A0319C8
:100118006728672820003C101730203E860087019A
:10012800403F84008501810A00088331C62380315D
:1001380001302000B8020030B93B38083904031DEB
:10014800A628A728A9280630AA2803300800833142
:10015800E9238031FA0020003708860087017A08F1
:1001680081000130FA007A08B7070130B802003080
:10017800B93B380839040319C228C328C828833171
:10018800D32380310530F028BC15D22883319E2333
:100198008031F0288331A3238031F0282C08FA001D
:1001A8007A08F90021088A0020080A008031FB003B
:1001B800FC017C08003A0319E228CE287B08013AA2
:1001C8000319CE28033A0319CA28013A0319CA2881
:1001D800073A0319CE28CE2808002100911234309E
:1001E800A0000130A1008331412380312100111288
:1001F8001A30A0000230A100833138238031083042
:1002080023009F0090309D0024309E0040309B00CA
:1002180003309C00F9302100A0000330A100833195
:1002280053238031DB302100A0000330A10083314B
:100238004A238031DF302100A0000330A100833140
:100248005C2380312000E301E801E7010830EC007D
:100258006C08E600E501FD01E401210091160800A3
:10026800200065083D3E86008701810123001D1D91
:100278003E293F294A29200065083D3E860087011E
:1002880081145A088A0059080A00813123009D1CEC
:100298004E294F295A29200065083D3E86008701CE
:1002A800011558088A0057080A008131200065089E
:1002B8003D3E8600870101080319632964296A29DC
:1002C80056088A0055080A0081316D2982317C223E
:1002D800813108002000BC157E298331B223813189
:1002E8009C298331E623813103309C298331AD2356
:1002F80081319C292C08FA007A08F90021088A0023
:1003080020080A008131FB00FC017C08003A03192F
:100318008E297A297B08013A03197A29033A0319A5
:100328007129013A03197129073A031975297A299C
:10033800080020003C100230FA007A08BB00AC2903
:100348008331B2238131C8298331AD238131C82952
:100358002E08FA007A08F9000430203E860087014A
:10036800413F8A00403F0A008131FB00FC017C08C4
:10037800003A0319C029A8297B08023A0319A429BD
:10038800013A0319A429A82908008331E3238131FC
:1003980020003C1CD029D129DE29833193238131C7
:1003A800003A0319D829D929DE290F302000E9009D
:1003B8006908BA0020003A08E900EA01E935EA0DBF
:1003C8003C306907840082306A3D8500013F8A001D
:1003D800003F0A0081312000EB006B08BA000800DA
:1003E800F400700871040319FA29FB290C2A7435E2
:1003F800203E860087017008C03F7108C13F72081F
:10040800F30074082C3E8600870173088100192ABE
:100418007435203E86008701F730C03F0330C13F66
:1004280074082C3E860087018101080008302000EE
:1004380066020318202A212A392A67084D3E8600B9
:100448008701010823009A000130F000700820009D
:10045800E70708306702031C322A332A342AE701E7
:100468000130F0007008E6073B2A2100111208004D
:10047800C1340334653403347E34033456340034D1
:10048800AB340034863403346E340134BC34033462
:10049800B7340334B2340334AD340334A8340334EA
:1004A800A33403349E340334993403349D34013423
:1004B800220090018F018C018D018E0108302100EE
:1004C80090008C01DF308D00BF308E00FF308F0030
:1004D80023008F013F308D00073090003C308C00A6
:1004E800240090018D012100951722009D0108002C
:1004F80023001908F00020006508453E86008701A2
:10050800700881000130F0007008E50708306502C6
:10051800031C8F2A902A912AE5010130F000700807
:10052800E4070800790886008701403FF000413F52
:10053800F1007908023E860087010108833105230E
:1005480082310030F500F600F7018331152382313E
:100558000230080083312E23823182315C228231BD
:100568008331222382318331CB2382318331762335
:1005780082318031F120823108000130F0000030F2
:10058800F10079088331052382310030F500F60047
:10059800F701833115238231043008000230F0005E
:1005A8000030F10079088331052382310030F500ED
:1005B800F600F7018331152382310230080001303B
:1005C800F0000030F10079088331052382310030D2
:1005D800F500F600F7018331152382310230080057
:1005E8000230F0000030F1007908833105238231B0
:1005F8000030F500F600F70183311523823104300D
:100608000800F3002000BC1D0A2B0B2B142B7308C9
:10061800F2007208B7007108B9007008B800BC1180
:1006280008007608F1007508F0007708F8007808E7
:10063800F20000308131F42183310800703021004C
:10064800990098012200960121001A1F2C2B2D2BAE
:10065800282B0800C030240094000830950096012B
:100668004F30920095120800210021082000DE007A
:10067800210020082000DD000800210021082000BA
:10068800DC00210020082000DB00080021002108F0
:100698002000D800210020082000D70008002100F1
:1006A80021082000DA00210020082000D9000800D5
:1006B800210021082000D600210020082000D500B4
:1006C800080020003C140314360D8331C6238331FF
:1006D800053008008231AE2283318B170B17732B3C
:1006E80080314728F03021009E009B019C01013099
:1006F8009D00080020003C1436358331C623833121
:100708000330080020003C108331EC23833104308F
:100718000800640080010131890B8E2B003424000D
:10072800160E890C890C013908002000BC10BB0189
:100738000E3008008331D723833109300800833114
:10074800D72383310A3008008331D323833105301E
:1007580008008331EF238331003008008331F2230E
:100768008331013008008331F223833102300800DD
:100778008331F2238331013008002000BC10BB0113
:100788000E300800F00070082400910008001630B0
:100798002100970008008131C92183310800240015
:1007A800961216160800240096161616080023003E
:1007B8001D121D16080082317C228331080020009A
:1007C8009111080020009115080024001108080064
:1007D8002400961508002400161508002400961415
:0C07E8000800053008000130080008007F
:020000040001F9
:08000000FF3FFF3FFF3FFF3F00
:04000E00E43FFF3F8D
:00000001FF
