:0400000080314728DC
:100008007E1480310B1F09280A2845282100111E5B
:100018000E280F281A282000111E132814281A2821
:1000280039088A0038080A00803145282100911EC5
:100038001E281F282A282000911E232824282A2821
:1000480037088A0036080A00803145282100921DA9
:100058002E282F283A282000921D332834283A28A1
:100068003D088A003C080A00803145282100911D7E
:100078003E283F2845282000911D4328442845282C
:1000880034287E100900803149282030840000304F
:10009800850025308631E5268031A0308400003087
:1000A80085004D308631E52680317E102000803174
:1000B8005D288531992580318B170B1720003F0863
:1000C80003196728682862288431B0248031200009
:1000D800E7006708E900C42986311226803122002A
:1000E8000C1405302000E8000F30E700F130890BD0
:1000F8007B28E70B7B28E80B7B287A302000E3007D
:100108008430E4008531AC2580316228863112269E
:10011800803122000C1405302000E8000F30E70081
:10012800F130890B9528E70B9528E80B95285A306C
:100138002000E3008630E4008531AC258031622858
:1001480086311226803122008C1405302000E80008
:100158000F30E700F130890BAF28E70BAF28E80B29
:10016800AF2864302000E3008630E4008531AC25F8
:100178008031622886311226803122000C15053024
:100188002000E8000F30E700F130890BC928E70BA1
:10019800C928E80BC9286E302000E3008630E40047
:1001A8008531AC25803162288631122680312200C3
:1001B8008C1505302000E8000F30E700F130890B7E
:1001C800E328E70BE328E80BE32878302000E30076
:1001D8008630E4008531AC258031622886311226CC
:1001E800803122000C1605302000E8000F30E700AF
:1001F800F130890BFD28E70BFD28E80BFD2882303C
:100208002000E3008630E4008531AC258031622887
:1002180086311226803122008C1605302000E80035
:100228000F30E700F130890B1729E70B1729E80B86
:1002380017298C302000E3008630E4008531AC2596
:100248008031622886311226803122000C17053051
:100258002000E8000F30E700F130890B3129E70B67
:100268003129E80B312996302000E3008630E4007C
:100278008531AC25803162288631122680312200F2
:100288008C1705302000E8000F30E700F130890BAB
:100298004B29E70B4B29E80B4B29A0302000E30042
:1002A8008630E4008531AC258031622886311226FB
:1002B800803122008C1505302000E8000F30E7005F
:1002C800F130890B6529E70B6529E80B6529AA3008
:1002D8002000E3008630E4008531AC2580316228B7
:1002E80086311226803122008D1405302000E80066
:1002F8000F30E700F130890B7F29E70B7F29E80BE6
:100308007F2939302000E3008630E4008531AC25B0
:100318008031622886311226803122000D15053081
:100328002000E8000F30E700F130890B9929E70B2E
:100338009929E80B992944302000E3008630E4002D
:100348008531AC2580316228863112268031220021
:100358008D1505302000E8000F30E700F130890BDB
:10036800B329E70BB329E80BB3294F302000E3008A
:100378008630E4008531AC2580316228010062288E
:100388006908E700E8016808003A0319CC296228DF
:100398006708303A03197028013A03198A28033A82
:1003A8000319A428013A0319BE28073A0319D828C3
:1003B800013A0319F228033A03190C29013A0319DF
:1003C80026290F3A03194029013A03195A29783A7C
:1003D80003197429033A03198E29013A0319A82924
:1003E800193A0319C2296228803147282000DA0007
:1003F800530886008701403FD500413FD600550885
:100408008400560885001200253A031D0C2A0D2A7F
:10041800522A5308860087010130810741310318A9
:10042800810AAA01AB01AE01AF01FF30AC00FF3079
:10043800AD00530886008701403FD500413FD600F4
:1004480055088400560885001200253A031D2D2AF8
:100458002E2A472A53088600870101308107413137
:100468000318810A2530CB000030CC005A08D5008B
:100478005508CD0083315623813101302000D30047
:100488000030D400752A530886008701013081079F
:1004980041310318810AD301D401752A5308860013
:1004A8008701403FD500413FD600550884005608D3
:1004B80085000008D700D8015708CB005808CC00A1
:1004C8005A08D9005908CD008331562381312000BC
:1004D8005308860087010130810741310318810ADA
:1004E800412A0800873109278231003A03197D2AF9
:1004F8007E2AAE2A8B2A873132278231CA2A87314F
:100508002D278231CA2A873123278231CA2A21001E
:100518004F08FA007A08F9000630C03E86008701C5
:10052800413F8A00403F0A008231FB00FC017C0801
:10053800003A0319A02A872A7B08013A0319872A57
:10054800033A03197F2A013A0319832A073A031940
:10055800872A872A21005C101730C03E8600870151
:10056800403F84008501810A000887313C27823199
:1005780001302100D8020030D93B58085904031D26
:10058800C62AC72AC92A0630CA2A03300800873172
:100598005F278231FA0021005708860087017A0810
:1005A80081000130FA007A08D7070130D8020030FC
:1005B800D93B580859040319E22AE32AE82A873163
:1005C800492782310530102BDC15F22A8731142790
:1005D8008231102B873119278231102B4C08FA00F1
:1005E8007A08F90041088A0040080A008231FB00B5
:1005F800FC017C08003A0319022BEE2A7B08013A19
:100608000319EE2A033A0319EA2A013A0319EA2AD6
:10061800073A0319EE2AEE2A0800210091129730B2
:100628002000C8000330C9008631F126833121003B
:10063800111229302000C8000530C9008631EB2688
:100648008331083023009F0090309D0024309E00A5
:1006580040309B0003309C006F302000C8000730FA
:10066800C9008631FD26833151302000C80007308B
:10067800C9008631F726833155302000C80007307D
:10068800C9008731032783312000BE01C401C3019B
:100698000830CA004A08C200C101C001BF012100D8
:1006A8009116080020004D0803195B2B5C2B612B69
:1006B8004D08031D602B612B662B4B088631D7260E
:1006C8008331962B4D08033E8600870116000104EE
:1006D80003196F2B702B8D2B4D08033E8600870165
:1006E800403FCE00413FCF004D0A86008701403F82
:1006F800D000413FD1005108803AD2004F08803ADB
:100708005202031D892B4E08500203188C2B8D2B87
:10071800962B20004D0A8600870101308107413160
:100728000318810A080020004108203E860087013E
:10073800810123001D1DA12BA22BAD2B20004108F8
:10074800203E86008701811435088A0034080A0093
:10075800833123009D1CB12BB22BBD2B20004108F7
:10076800203E86008701011533088A0032080A00F6
:10077800833120004108203E8600870101080319C3
:10078800C62BC72BCD2B31088A0030080A008331CD
:10079800D02B85316725833108002100DC15E12B3A
:1007A800873128278331FF2B87315C27833103303A
:1007B800FF2B873123278331FF2B4C08FA007A0857
:1007C800F90041088A0040080A008331FB00FC0157
:1007D8007C08003A0319F12BDD2B7B08013A031939
:1007E800DD2B033A0319D42B013A0319D42B073A0A
:1007F8000319D82BDD2B08008731592784312100B4
:100808005C1C072C082C162C873109278431003AE8
:1008180003190F2C102C162C0F302000C50045088A
:100828002100DA0021005A082000C500C601C5359C
:10083800C60D5A30450784008430463D8500013F87
:100848008A00003F0A0084312000C70047082100C1
:10085800DA00080021005C100230FA007A08DB0098
:100868003D2C873128278431592C8731232784311F
:10087800592C4E08FA007A08F9000430C03E860068
:100888008701413F8A00403F0A008431FB00FC0198
:100898007C08003A0319512C392C7B08023A0319B9
:1008A800352C013A0319352C392C08003734073414
:1008B800BE340634CF34063476340234CB340234B2
:1008C800DE340634D1340334323407342D3407345B
:1008D80028340734233407341E34073419340734D2
:1008E800143407340F3407342E3404342D343E3492
:1008F800473452343A3478343A344F3446344634F0
:1009080000342000C900420803198B2C8C2C872C3A
:100918002100111A902C912C962C200049082300B4
:100928009A00AD2C111220004908C8004408E53E81
:1009380086008701480881000130C8004808C407BC
:1009480008304402031CA92CAA2CAB2CC40101308A
:10095800C20221001116080020003F080319B52C17
:10096800B62CB02C4008203E860087010108C8003C
:100978004808BE004008DD3E860087010108C8001F
:100988004808C9000130C8004808C00708304002BC
:10099800031CCF2CD02CD12CC00121009112013086
:1009A8002000BF02210091162000490808002000FD
:1009B800E0005C08E2005B08E100A801A901F52C51
:1009C8006130DE005E08D3005D08DF005F08D400F8
:1009D80060088131FA21843120005308A80754089F
:1009E800A93D61088400620885001200031DFD2CE2
:1009F800FE2CE42C2908DC002808DB000800F400A1
:100A0800700871040319092D0A2D1B2D7435C03E79
:100A1800860087017008C03F7108C13F7208F30063
:100A28007408CC3E8600870173088100282D743530
:100A3800C03E860087016D30C03F0730C13F740853
:100A4800CC3E860087018101080008302000420260
:100A580003182F2D302D482D4308E53E86008701C9
:100A6800010823009A000130F00070082000C30735
:100A780008304302031C412D422D432DC301013090
:100A8800F0007008C2074A2D210011120800220048
:100A980090018F018C018D018E010830210090009A
:100AA8008C01C0308D0099308E008F0123008F019A
:100AB8008D0190018C01240090018D012100951772
:100AC80022009D01080023001908F00020004108B9
:100AD800DD3E86008701700881000130F000700853
:100AE800C10708304102031C7A2D7B2D7C2DC101E2
:100AF8000130F0007008BF070800790886008701F8
:100B0800403FF000413FF1007908023E860087012E
:100B180001088631022685310030F500F600F7011C
:100B2800863120268531023008008631B426853189
:100B380085314B25853186312D26853187314127F1
:100B480085318631C72685318331112385310800E7
:100B580065302000E5006508E6006408DC006308ED
:100B6800DB006630E5006508DD0000308431DB24F9
:100B7800853108000130F0000030F1007908863135
:100B8800022685310030F500F600F701863120266F
:100B98008531043008000230F0000030F100790897
:100BA8008631022685310030F500F600F7018631DE
:100BB80020268531023008000130F0000030F100B5
:100BC80079088631022685310030F500F600F701F4
:100BD800863120268531023008000230F0000030CE
:100BE800F10079088631022685310030F500F600DB
:100BF800F70186312026853104300800F3002100F2
:100C0800DC1D072E082E112E7308F2007208D7007B
:100C18007108D9007008D800DC11080022000C10F7
:100C28008C100C118C110C128C120C138C130D10CF
:100C38008D100D118D1108007608F1007508F0006F
:100C48007708F8007808F2000030853103258631EE
:100C580008007030210099009801220096012100B7
:100C68001A1F372E382E332E08002D343E344734C1
:100C780052343A34313430343A344F344E34003408
:100C88002D343E34473452343A34313431343A34E2
:100C98004F344E3400342D343E34473452343A34D1
:100CA800313432343A344F344E3400342D343E34F7
:100CB800473452343A3431343A344F344E340034B1
:100CC8002D343E34473452343A3432343A344F3483
:100CD8004E3400342D343E34473452343A343334AD
:100CE8003A344F344E3400342D343E344734523481
:100CF8003A3434343A344F344E3400342D343E349C
:100D0800473452343A3435343A344F344E3400345C
:100D18002D343E34473452343A3436343A344F342E
:100D28004E3400342D343E34473452343A34373458
:100D38003A344F344E3400342D343E344734523430
:100D48003A3438343A344F344E3400342D343E3447
:100D5800473452343A3439343A344F344E34003408
:100D6800C030240094000830950096014F3092005E
:100D78009512080021005C140314560D87313C2796
:100D8800863105300800F03021009E009B019C014F
:100D980001309D00080021005C14563587313C273E
:100DA8008631033008002000CA004A0884318524AF
:100DB8008631080021005C108731622786310430B3
:100DC8000800640080010131890BE62E0034200000
:100DD8004908B9004808B800080020004908B700C9
:100DE8004808B600080020004908B3004808B200C7
:100DF800080020004908B5004808B4000800200091
:100E08004908B1004808B00008002400160E890CF3
:100E1800890C013908002100DC10DB010E300800C4
:100E280087314D2787310930080087314D278731B1
:100E38000A30080087314927873105300800873193
:100E480065278731003008008731682787310130EE
:100E58000800873168278731023008008731682702
:100E68008731013008002100DC10DB010E3008005A
:100E7800F000700824009100080016302100970047
:100E880008008431002487310800240096121616C1
:100E98000800240096161616080023001D121D16B9
:100EA8000800853167258731080020009111080066
:100EB8002000911508002400110808002400961548
:100EC80008002400161508002400961408000530B0
:080ED8000800013008000800C9
:020000040001F9
:08000000FF3FFF3FFF3FFF3F00
:04000E00E43FFF3F8D
:00000001FF
