:0400000080314728DC
:100008007E1480310B1F09280A2845282100111E5B
:100018000E280F281A282000111E132814281A2821
:1000280039088A0038080A00803145282100911EC5
:100038001E281F282A282000911E232824282A2821
:1000480037088A0036080A00803145282100921DA9
:100058002E282F283A282000921D332834283A28A1
:100068003D088A003C080A00803145282100911D7E
:100078003E283F2845282000911D4328442845282C
:1000880034287E100900803149282030840000304F
:1000980085002530863155268031A0308400003017
:1000A80085004D308631552680317E102000803104
:1000B8005D288531172580318B170B1720003F08E5
:1000C80003196728682862288431142480312000A5
:1000D800E7006708E90028298431CB248031220011
:1000E8000C14DE302000E3008330E40085312A253B
:1000F800803162288431CB24803122000C14CA302C
:100108002000E3008530E40085312A25803162280B
:100118008431CB24803122008C14D4302000E300B9
:100128008530E40085312A25803162288431CB244A
:10013800803122000C15DE302000E3008530E40019
:1001480085312A25803162288431CB2480312200F0
:100158008C15E8302000E3008530E40085312A253D
:10016800803162288431CB24803122000C16F23091
:100178002000E3008530E40085312A25803162289B
:100188008431CB24803122008C16FC302000E3001F
:100198008530E40085312A25803162288431CB24DA
:1001A800803122000C1706302000E3008630E4007E
:1001B80085312A25803162288431CB248031220080
:1001C8008C1710302000E3008630E40085312A25A2
:1001D800803162288431CB24803122008C151A307A
:1001E8002000E3008630E40085312A25803162282A
:1001F8008431CB24803122008D14A9302000E30003
:100208008530E40085312A25803162288431CB2469
:10021800803122000D15B4302000E3008530E40061
:1002280085312A25803162288431CB24803122000F
:100238008D15BF302000E3008530E40085312A2584
:1002480080316228010062286908E700E80168082F
:10025800003A0319302962286708303A03197028D0
:10026800013A03197E28033A03198C28013A031925
:100278009A28073A0319A828013A0319B628033A15
:100288000319C428013A0319D2280F3A0319E028A0
:10029800013A0319EE28783A0319FC28033A03199E
:1002A8000A29013A03191829193A03192629622833
:1002B800803147282000DA00530886008701403F34
:1002C800D500413FD6005508840056088500120025
:1002D800253A031D70297129B6295308860087011C
:1002E8000130810741310318810AAA01AB01AE012F
:1002F800AF01FF30AC00FF30AD0053088600870126
:10030800403FD500413FD600550884005608850077
:100318001200253A031D91299229AB29530886001A
:1003280087010130810741310318810A2530CB004C
:100338000030CC005A08D5005508CD008231BA22C9
:10034800813101302000D3000030D400D92953086E
:10035800860087010130810741310318810AD301E2
:10036800D401D929530886008701403FD500413F71
:10037800D60055088400560885000008D700D80123
:100388005708CB005808CC005A08D9005908CD00A6
:100398008231BA228131200053088600870101305A
:1003A800810741310318810AA52908008631792679
:1003B8008131003A0319E129E229122AEF2986310D
:1003C800A22681312E2A86319D2681312E2A863118
:1003D800932681312E2A21004F08FA007A08F90065
:1003E8000630C03E86008701413F8A00403F0A0030
:1003F8008131FB00FC017C08003A0319042AEB292F
:100408007B08013A0319EB29033A0319E329013A56
:100418000319E729073A0319EB29EB2921005C1096
:100428001730C03E86008701403F84008501810A5D
:1004380000088631AC26813101302100D802003015
:10044800D93B58085904031D2A2A2B2A2D2A06307D
:100458002E2A033008008631CF268231FA00210087
:100468005708860087017A0881000130FA007A0867
:10047800D7070130D8020030D93B5808590403196E
:10048800462A472A4C2A8631B92682310530742AF1
:10049800DC15562A863184268231742A86318926CB
:1004A8008231742A4C08FA007A08F90041088A0057
:1004B80040080A008231FB00FC017C08003A03195D
:1004C800662A522A7B08013A0319522A033A031969
:1004D8004E2A013A03194E2A073A0319522A522A78
:1004E800080021009112FB302000C8000230C9002A
:1004F800863161268231210011128D302000C8001A
:100508000430C90086315B268231083023009F0001
:1005180090309D0024309E0040309B0003309C00AA
:10052800DF302000C8000630C90086316D268231D0
:10053800C1302000C8000630C900863167268231E4
:10054800C5302000C8000630C900863173268231C4
:100558002000BE01C401C3010830CA004A08C20015
:10056800C101C001BF0121009116080020004D08FB
:100578000319BF2AC02AC52A4D08031DC42AC52A43
:10058800CA2A4B08863147268231FA2A4D08033E8B
:1005980086008701160001040319D32AD42AF12AF8
:1005A8004D08033E86008701403FCE00413FCF0003
:1005B8004D0A86008701403FD000413FD1005108D5
:1005C800803AD2004F08803A5202031DED2A4E08A5
:1005D80050020318F02AF12AFA2A20004D0A860050
:1005E80087010130810741310318810A0800200082
:1005F8004108203E86008701810123001D1D052B2F
:10060800062B112B20004108203E8600870181140B
:1006180035088A0034080A00833123009D1C152BF5
:10062800162B212B20004108203E8600870101154A
:1006380033088A0032080A00833120004108203E2E
:1006480086008701010803192A2B2B2B312B31082F
:100658008A0030080A008331342B8431E524823142
:1006680008002100DC15452B863198268331632B41
:100678008631CC2683310330632B86319326833130
:10068800632B4C08FA007A08F90041088A004008F0
:100698000A008331FB00FC017C08003A0319552B42
:1006A800412B7B08013A0319412B033A0319382BD4
:1006B800013A0319382B073A03193C2B412B080040
:1006C8008631C926833121005C1C6B2B6C2B7A2B5D
:1006D800863179268331003A0319732B742B7A2BD0
:1006E8000F302000C50045082100DA0021005A0813
:1006F8002000C500C601C535C60DBE3045078400BB
:100708008330463D8500013F8A00003F0A0083315F
:100718002000C70047082100DA00080021005C100B
:100728000230FA007A08DB00A12B86319826833143
:10073800BD2B863193268331BD2B4E08FA007A08EB
:10074800F9000430C03E86008701413F8A00403FDF
:100758000A008331FB00FC017C08003A0319B52B21
:100768009D2B7B08023A0319992B013A0319992BFF
:100778009D2B0800A73406342E3406343F34063443
:10078800DA3401342F3402344E3406343534033429
:10079800A23406349D34063498340634933406342F
:1007A8008E34063489340634843406347F3406346F
:1007B800923403342D343E34473452343A34783446
:1007C8003A344F344634463400342000C9004208D5
:1007D8000319EF2BF02BEB2B2100111AF42BF52B1F
:1007E800FA2B2000490823009A00112C111220002E
:1007F8004908C8004408E53E86008701480881008A
:100808000130C8004808C40708304402031C0D2CF6
:100818000E2C0F2CC4010130C20221001116080051
:1008280020003F080319192C1A2C142C4008203ECC
:10083800860087010108C8004808BE004008DD3E60
:10084800860087010108C8004808C9000130C800AF
:100858004808C00708304002031C332C342C352CC0
:10086800C0012100911201302000BF022100911621
:100878002000490808002000E0005C08E2005B084E
:10088800E100A801A901592C6130DE005E08D300FF
:100898005D08DF005F08D400600881315E21843183
:1008A80020005308A8075408A93D6108840062087D
:1008B80085001200031D612C622C482C2908DC00DD
:1008C8002808DB000800F4007008710403196D2C77
:1008D8006E2C7F2C7435C03E860087017008C03F9F
:1008E8007108C13F7208F3007408CC3E8600870186
:1008F800730881008C2C7435C03E86008701DD307A
:10090800C03F0630C13F7408CC3E86008701810194
:1009180008000830200042020318932C942CAC2CB9
:100928004308E53E86008701010823009A0001304C
:10093800F00070082000C30708304302031CA52CF0
:10094800A62CA72CC3010130F0007008C207AE2CFA
:10095800210011120800220090018F018C018D01E5
:100968008E010830210090008C01C0308D00993034
:100978008E008F0123008F018D0190018C012400CE
:1009880090018D012100951722009D010800220089
:100998000C108C100C118C110C128C120C138C1363
:1009A8000D108D100D118D1105302000C9000F306C
:1009B800C800F130890BDE2CC80BDE2CC90BDE2CED
:1009C800080023001908F00020004108DD3E8600D9
:1009D8008701700881000130F0007008C1070830F5
:1009E8004102031CF82CF92CFA2CC1010130F0004B
:1009F8007008BF070800790886008701403FF000AB
:100A0800413FF1007908023E8600870101088531DF
:100A1800802584310030F500F600F70185319025F6
:100A28008431023008008631242685318431AF2490
:100A3800853185319D2585318631B12685318631CF
:100A480037268531823175228531080065302000CE
:100A5800E5006508E6006408DC006308DB00663032
:100A6800E5006508DD00003084313F248531080049
:100A78000130F0000030F10079088531802585319A
:100A88000030F500F600F7018531902585310430F6
:100A980008000230F0000030F10079088531802527
:100AA80085310030F500F600F70185319025853154
:100AB800023008000130F0000030F100790885317B
:100AC800802585310030F500F600F7018531902545
:100AD8008531023008000230F0000030F10079085A
:100AE8008531802585310030F500F600F701853124
:100AF8009025853104300800F3002100DC1D852D88
:100B0800862D8F2D7308F2007208D7007108D9005E
:100B18007008D800DC1108007608F1007508F000AC
:100B28007708F8007808F2000030843167248531AE
:100B380008007030210099009801220096012100D8
:100B48001A1FA72DA82DA32D08002D343E34473495
:100B580052343A34313430343A344F344E34003429
:100B68002D343E34473452343A34313431343A3403
:100B78004F344E3400342D343E34473452343A34F2
:100B8800313432343A344F344E3400342D343E3418
:100B9800473452343A3431343A344F344E340034D2
:100BA8002D343E34473452343A3432343A344F34A4
:100BB8004E3400342D343E34473452343A343334CE
:100BC8003A344F344E3400342D343E3447345234A2
:100BD8003A3434343A344F344E3400342D343E34BD
:100BE800473452343A3435343A344F344E3400347E
:100BF8002D343E34473452343A3436343A344F3450
:100C08004E3400342D343E34473452343A34373479
:100C18003A344F344E3400342D343E344734523451
:100C28003A3438343A344F344E3400342D343E3468
:100C3800473452343A3439343A344F344E34003429
:100C4800C030240094000830950096014F3092007F
:100C58009512080021005C140314560D8631AC2649
:100C6800863105300800F03021009E009B019C0170
:100C780001309D00080021005C1456358631AC26F1
:100C88008631033008002000CA004A088331E9236E
:100C98008631080021005C108631D2268631043066
:100CA8000800640080010131890B562E00342000B1
:100CB8004908B9004808B800080020004908B700EA
:100CC8004808B600080020004908B3004808B200E8
:100CD800080020004908B5004808B40008002000B2
:100CE8004908B1004808B00008002400160E890C15
:100CF800890C013908002100DC10DB010E300800E6
:100D08008631BD268631093008008631BD268631F8
:100D18000A3008008631B926863105300800863148
:100D2800D5268631003008008631D8268631013034
:100D380008008631D8268631023008008631D82648
:100D48008631013008002100DC10DB010E3008007C
:100D5800F000700824009100080016302100970068
:100D68000800833164238631080024009612161681
:100D78000800240096161616080023001D121D16DA
:100D880008008431E524863108002000911108000C
:100D98002000911508002400110808002400961569
:100DA80008002400161508002400961408000530D1
:080DB8000800013008000800EA
:020000040001F9
:08000000FF3FFF3FFF3FFF3F00
:04000E00E43FFF3F8D
:00000001FF
