:0400000080314728DC
:100008007E1480310B1F09280A2845282100111E5B
:100018000E280F281A282000111E132814281A2821
:100028005E088A005D080A00803145282100911E7B
:100038001E281F282A282000911E232824282A2821
:100048005C088A005B080A00803145282100921D5F
:100058002E282F283A282000921D332834283A28A1
:1000680062088A0061080A00803145282100911D34
:100078003E283F2845282000911D4328442845282C
:1000880034287E100900803149284D308400003022
:1000980085001D3087313B278031A0308400003037
:1000A8008500353087313B2780312030840001308E
:1000B8008500203087313B2780317E102000823137
:1000C8005E2A2000C400AA298631732680312200C6
:1000D8000C1405302000C3000F30C200F130890B2A
:1000E8007328C20B7328C30B7328CD302000BE00C1
:1000F8008430BF008531FF258031E12986317326A0
:10010800803122008C1405302000C3000F30C2005B
:10011800F130890B8D28C20B8D28C30B8D28B03088
:100128002000BE008630BF008531FF258031E129DF
:1001380086317326803122000C1505302000C3005B
:100148000F30C200F130890BA728C20BA728C30BB8
:10015800A728BA302000BE008630BF008531FF25B1
:100168008031E12986317326803122008C150530D3
:100178002000C3000F30C200F130890BC128C20B28
:10018800C128C30BC128C4302000BE008630BF0080
:100198008531FF258031E12986317326803122009F
:1001A8000C1605302000C3000F30C200F130890B57
:1001B800DB28C20BDB28C30BDB28CE302000BE00B7
:1001C8008630BF008531FF258031E12986317326CD
:1001D800803122008C1605302000C3000F30C20089
:1001E800F130890BF528C20BF528C30BF528D83058
:1001F8002000BE008630BF008531FF258031E1290F
:1002080086317326803122000C1705302000C30088
:100218000F30C200F130890B0F29C20B0F29C30B15
:100228000F29E2302000BE008630BF008531FF254F
:100238008031E12986317326803122008C17053000
:100248002000C3000F30C200F130890B2929C20BEE
:100258002929C30B2929EC302000BE008630BF00B5
:100268008531FF258031E1298631732680312200CE
:100278000D1405302000C3000F30C200F130890B87
:100288004329C20B4329C30B4329F6302000BE0083
:100298008630BF008531FF258031E12986317326FC
:1002A800803122008D1405302000C3000F30C200B9
:1002B800F130890B5D29C20B5D29C30B5D29003024
:1002C8002000BE008730BF008531FF258031E1293D
:1002D80086317326803122000D1505302000C300B9
:1002E8000F30C200F130890B7729C20B7729C30B75
:1002F80077299A302000BE008630BF008531FF255F
:100308008031E12986317326803122008D15053030
:100318002000C3000F30C200F130890B9129C20BB5
:100328009129C30B9129A5302000BE008630BF005B
:100338008531FF258031E1290100E12986316526D3
:100348008031E129863173268031E1294408C200D1
:10035800C3014308003A0319B229E1294208313A96
:1003680003196828033A03198228013A03199C28BB
:10037800073A0319B628013A0319D028033A031992
:10038800EA28013A031904290F3A03191E29013AE8
:1003980003193829033A03195229013A03196C2918
:1003A800073A03198629683A0319A2290E3A03194C
:1003B800A0292E3A0319A629E12908002000B50032
:1003C8002E0886008701403FB000413FB100300849
:1003D8008400310885001200253A031DF429F52907
:1003E8003A2A2E0886008701013081074131031817
:1003F800810ACF01D001D301D401FF30D100FF30F1
:10040800D2002E0886008701403FB000413FB1006E
:1004180030088400310885001200253A031D152A8A
:10042800162A2F2A2E0886008701013081074131BC
:100438000318810A2530A6000030A7003508B0004F
:100448003008A8008331A923813101302000AE0093
:100458000030AF005D2A2E08860087010130810731
:1004680041310318810AAE01AF015D2A2E088600CA
:100478008701403FB000413FB10030088400310897
:1004880085000008B200B3013208A6003308A700AF
:100498003508B4003408A8008331A923813120002D
:1004A8002E08860087010130810741310318810A2F
:1004B800292A08008531EC2582318B170B1730303B
:1004C8002000C5004508CC002000640803196D2AE7
:1004D8006E2A792A8531032582312000C500450816
:1004E800CB004B0880316520823120000E187D2A10
:1004F8007E2A682A0030CA000030C9000030C800CF
:100508000030C700AF2A0130C7070030C83D0030AF
:10051800C93D0030CA3DCA1B9D2A4A08031D9E2AB0
:10052800A13047028630483B0130493B031C9D2AD5
:100538009E2AAF2A8631732682317A302000C6007F
:10054800C130C5008130890BA72AC50BA72AC60B65
:10055800A72A0032C72A20000E1CB32AB42A872AE9
:100568000130C5004508CC073D304C020318BD2AB0
:10057800BE2AC32A4C08803165208231682A863118
:1005880073268231632A8031472887315F27823179
:10059800003A0319D02AD12A012BDE2A873188276D
:1005A80082311D2B8731832782311D2B8731792793
:1005B80082311D2B21002F08FA007A08F900063035
:1005C800A03E86008701413F8A00403F0A008231F1
:1005D800FB00FC017C08003A0319F32ADA2A7B089D
:1005E800013A0319DA2A033A0319D22A013A0319FC
:1005F800D62A073A0319DA2ADA2A21003C101730DA
:10060800A03E86008701403F84008501810A0008DA
:1006180087319227823101302100B8020030B93B7E
:1006280038083904031D192B1A2B1C2B06301D2BD7
:10063800033008008731B5278331FA0021003708D5
:10064800860087017A0881000130FA007A08B70726
:100658000130B8020030B93B380839040319352B8A
:10066800362B3B2B87319F2783310530632BBC15F5
:10067800452B87316A278331632B87316F27833175
:10068800632B2C08FA007A08F90021088A00200850
:100698000A008331FB00FC017C08003A0319552B42
:1006A800412B7B08013A0319412B033A03193D2BCF
:1006B800013A03193D2B073A0319412B412B080036
:1006C80021009112EA302000A3000330A4008731F2
:1006D80047278331210011127C302000A300053008
:1006E800A400873141278331083023009F009030D0
:1006F8009D0024309E0040309B0003309C00C53094
:100708002000A3000730A400873153278331A73086
:100718002000A3000730A40087314D278331AB3078
:100728002000A3000730A400873159278331200017
:10073800E301E901E8010830A5002508E700E60122
:10074800E501E4012100911608002000280803199A
:10075800AE2BAF2BB42B2808031DB32BB42BB92B0E
:10076800260887312D278331E92B2808033E860088
:100778008701160001040319C22BC32BE02B28089C
:10078800033E86008701403FA900413FAA00280A8E
:1007980086008701403FAB00413FAC002C08803AFF
:1007A800AD002A08803A2D02031DDC2B29082B02F4
:1007B8000318DF2BE02BE92B2000280A860087018D
:1007C8000130810741310318810A080020006608BA
:1007D800BD3E86008701810123001D1DF42BF52BEA
:1007E800002C20006608BD3E8600870181145A0847
:1007F8008A0059080A00833123009D1C042C052C0B
:10080800102C20006608BD3E860087010115580897
:100818008A0057080A00843120006608BD3E860019
:10082800870101080319192C1A2C202C56088A0054
:1008380055080A008431232C8531BA2583310800F4
:100848002100BC15342C87317E278431522C873106
:10085800B22784310330522C873179278431522CC6
:100868002C08FA007A08F90021088A0020080A00F2
:100878008431FB00FC017C08003A0319442C302C1D
:100888007B08013A0319302C033A0319272C013A43
:100898000319272C073A03192B2C302C0800873111
:1008A800AF27843121003C1C5A2C5B2C692C8731E2
:1008B8005F278431003A0319622C632C692C0F30AE
:1008C8002000A00020082100BA0021003A082000DA
:1008D800A000A101A035A10DAD302007840084300F
:1008E800213D8500013F8A00003F0A008431200035
:1008F800A20022082100BA00080021003C100230A2
:10090800FA007A08BB00902C87317E278431AC2C02
:10091800873179278431AC2C2E08FA007A08F9003F
:100928000430A03E86008701413F8A00403F0A000C
:100938008431FB00FC017C08003A0319A42C8C2CA0
:100948007B08023A0319882C013A0319882C8C2C4D
:1009580008008D3407341434073425340734C93477
:1009680002341E34033434340734243404348834D1
:100978000734833407347E340734793407347434C5
:1009880007346F3407346A340734653407348134E4
:1009980004342D343E34473452343A3478343A34BB
:1009A8004F344634463400342000A4006708031945
:1009B800DE2CDF2CDA2C2100111AE32CE42CE92C94
:1009C8002000240823009A00002D1112200024087A
:1009D800A3006908CD3E8600870123088100013005
:1009E800A3002308E90708306902031CFC2CFD2C2E
:1009F800FE2CE9010130E702210011160800200051
:100A080064080319082D092D032D6508BD3E8600CD
:100A180087010108A3002308E3006508C53E860096
:100A280087010108A3002308A4000130A3002308BC
:100A3800E50708306502031C222D232D242DE5012E
:100A48002100911201302000E402210091162000BB
:100A5800240808002000BB003708BD003608BC0089
:100A6800CD01CE01482D3C30B9003908AE00380818
:100A7800BA003A08AF003B088131E22185312000F5
:100A88002E08CD072F08CE3D3C0884003D08850080
:100A98001200031D502D512D372D4E08B7004D085B
:100AA800B6000800F4007008710403195C2D5D2D70
:100AB8006E2D7435A03E860087017008C03F71080E
:100AC800C13F7208F3007408AC3E860087017308C2
:100AD80081007B2D7435A03E86008701C330C03F5E
:100AE8000730C13F7408AC3E8600870181010800C9
:100AF8000830200067020318822D832D9B2D68087B
:100B0800CD3E86008701010823009A000130F000DD
:100B180070082000E80708306802031C942D952D02
:100B2800962DE8010130F0007008E7079D2D21009F
:100B380011120800220090018F018C018D018E0195
:100B48000830210090008C01C0308D0099308E0053
:100B58008F0123008F018D0190018C0124009001E9
:100B68008D012100951722009D0108002300190816
:100B7800F00020006608C53E8600870170088100E5
:100B88000130F0007008E60708306602031CCD2D1E
:100B9800CE2DCF2DE6010130F0007008E4070800E3
:100BA800790886008701403FF000413FF10079084D
:100BB800023E8600870101088631552685310030BE
:100BC800F500F600F70186318126853102300800EC
:100BD80087310A27853185319E25853186318E26D4
:100BE800853187319727853187311D2785318331B5
:100BF80064238531080040302000C0004008C1004F
:100C08003F08B7003E08B6004130C0004008B800B1
:100C1800003085312E25853108000130F000003084
:100C2800F10079088631552686310030F500F60046
:100C3800F701863181268631043008000230F00041
:100C48000030F10079088631552686310030F500EC
:100C5800F600F7018631812686310230080001301E
:100C6800F0000030F10079088631552686310030D1
:100C7800F500F600F701863181268631023008003A
:100C88000230F0000030F1007908863155268631AF
:100C98000030F500F600F7018631812686310430F0
:100CA8000800F3002100BC1D5A2E5B2E642E730829
:100CB800F2007208B7007108B9007008B800BC11DA
:100CC800080022000C148C140C158C150C168C16AC
:100CD8000C178C170D148D140D158D150800220096
:100CE8000C108C100C118C110C128C120C138C1310
:100CF8000D108D100D118D1108007608F100750882
:100D0800F0007708F8007808F200003085315625A1
:100D18008631080070302100990098012200960160
:100D280021001A1F982E992E942E08002D343E3437
:100D3800473452343A34313430343A344F344E3400
:100D480000342D343E34473452343A34313431345B
:100D58003A344F344E3400342D343E344734523410
:100D68003A3431343A344F344E3400342D343E342E
:100D7800473452343A3432343A344F344E340034EF
:100D88002D343E34473452343A3433343A344F34C1
:100D98004E3400342D343E34473452343A343434EB
:100DA8003A344F344E3400342D343E3447345234C0
:100DB8003A3435343A344F344E3400342D343E34DA
:100DC800473452343A3436343A344F344E3400349B
:100DD8002D343E34473452343A3437343A344F346D
:100DE8004E3400342D343E34473452343A34383497
:100DF8003A344F344E3400342D343E344734523470
:100E08003A3439343A344F344E340034C030240044
:100E180094000830950096014F3092009512080012
:100E280021003C140314360D873192278731053091
:100E38000800F03021009E009B019C0101309D00BC
:100E4800080021003C14363587319227873103305A
:100E580008002000A50025088431D824873108001F
:100E680021003C108731B82787310430080064001E
:100E780080010131890B3C2F003420002408DE005A
:100E88002308DD00080020002408DC002308DB001C
:100E9800080020002408D8002308D70008002000F4
:100EA8002408DA002308D900080020002408D60006
:100EB8002308D50008002400160E890C890C013976
:100EC80008002100BC10BB010E3008008731A327A1
:100ED8008731093008008731A32787310A30080095
:100EE80087319F278731053008008731BB27873135
:100EF800003008008731BE2787310130080087316C
:100F0800BE278731023008008731BE27873101307C
:100F180008002100BC10BB010E300800F00070086A
:100F28002400910008001630210097000800843141
:100F3800532487310800240096121616080024004E
:100F480096161616080023001D121D160800853176
:100F5800BA2587310800200091110800200091155A
:100F68000800240011080800240096150800240031
:100F780016150800240096140800053008000130F2
:040F88000800080055
:020000040001F9
:08000000FF3FFF3FFF3FFF3F00
:04000E00E43FFF3F8D
:00000001FF
